{
  "_format": "hh-sol-artifact-1",
  "contractName": "DiamondToken",
  "sourceName": "contracts/DiamondToken.sol",
  "abi": [
    {
      "inputs": [],
      "stateMutability": "nonpayable",
      "type": "constructor"
    },
    {
      "anonymous": false,
      "inputs": [
        {
          "indexed": true,
          "internalType": "address",
          "name": "owner",
          "type": "address"
        },
        {
          "indexed": true,
          "internalType": "address",
          "name": "spender",
          "type": "address"
        },
        {
          "indexed": false,
          "internalType": "uint256",
          "name": "value",
          "type": "uint256"
        }
      ],
      "name": "Approval",
      "type": "event"
    },
    {
      "anonymous": false,
      "inputs": [
        {
          "indexed": true,
          "internalType": "address",
          "name": "from",
          "type": "address"
        },
        {
          "indexed": true,
          "internalType": "address",
          "name": "to",
          "type": "address"
        },
        {
          "indexed": false,
          "internalType": "uint256",
          "name": "value",
          "type": "uint256"
        }
      ],
      "name": "Transfer",
      "type": "event"
    },
    {
      "inputs": [
        {
          "internalType": "address",
          "name": "rep",
          "type": "address"
        },
        {
          "internalType": "uint256",
          "name": "amount",
          "type": "uint256"
        }
      ],
      "name": "approveRep",
      "outputs": [
        {
          "internalType": "bool",
          "name": "",
          "type": "bool"
        }
      ],
      "stateMutability": "nonpayable",
      "type": "function"
    },
    {
      "inputs": [
        {
          "internalType": "address",
          "name": "_owner",
          "type": "address"
        },
        {
          "internalType": "address",
          "name": "_rep",
          "type": "address"
        }
      ],
      "name": "approvedRepBal",
      "outputs": [
        {
          "internalType": "uint256",
          "name": "bal",
          "type": "uint256"
        }
      ],
      "stateMutability": "view",
      "type": "function"
    },
    {
      "inputs": [
        {
          "internalType": "address",
          "name": "owner",
          "type": "address"
        }
      ],
      "name": "balanceOf",
      "outputs": [
        {
          "internalType": "uint256",
          "name": "balance",
          "type": "uint256"
        }
      ],
      "stateMutability": "view",
      "type": "function"
    },
    {
      "inputs": [],
      "name": "decimals",
      "outputs": [
        {
          "internalType": "uint8",
          "name": "",
          "type": "uint8"
        }
      ],
      "stateMutability": "view",
      "type": "function"
    },
    {
      "inputs": [
        {
          "internalType": "uint256",
          "name": "",
          "type": "uint256"
        }
      ],
      "name": "repsList",
      "outputs": [
        {
          "internalType": "uint256",
          "name": "balance",
          "type": "uint256"
        },
        {
          "internalType": "address",
          "name": "_rep",
          "type": "address"
        }
      ],
      "stateMutability": "view",
      "type": "function"
    },
    {
      "inputs": [],
      "name": "symbol",
      "outputs": [
        {
          "internalType": "string",
          "name": "",
          "type": "string"
        }
      ],
      "stateMutability": "view",
      "type": "function"
    },
    {
      "inputs": [],
      "name": "tokenName",
      "outputs": [
        {
          "internalType": "string",
          "name": "",
          "type": "string"
        }
      ],
      "stateMutability": "view",
      "type": "function"
    },
    {
      "inputs": [],
      "name": "totalHistory",
      "outputs": [
        {
          "components": [
            {
              "internalType": "uint256",
              "name": "amount",
              "type": "uint256"
            },
            {
              "internalType": "bool",
              "name": "status",
              "type": "bool"
            },
            {
              "internalType": "address",
              "name": "_to",
              "type": "address"
            },
            {
              "internalType": "uint256",
              "name": "time",
              "type": "uint256"
            }
          ],
          "internalType": "struct DiamondToken.TransferDetails[]",
          "name": "",
          "type": "tuple[]"
        }
      ],
      "stateMutability": "view",
      "type": "function"
    },
    {
      "inputs": [],
      "name": "totalReps",
      "outputs": [
        {
          "components": [
            {
              "internalType": "uint256",
              "name": "balance",
              "type": "uint256"
            },
            {
              "internalType": "address",
              "name": "_rep",
              "type": "address"
            }
          ],
          "internalType": "struct DiamondToken.RepDetails[]",
          "name": "",
          "type": "tuple[]"
        }
      ],
      "stateMutability": "view",
      "type": "function"
    },
    {
      "inputs": [],
      "name": "totalSupply",
      "outputs": [
        {
          "internalType": "uint256",
          "name": "total",
          "type": "uint256"
        }
      ],
      "stateMutability": "view",
      "type": "function"
    },
    {
      "inputs": [
        {
          "internalType": "address",
          "name": "owner",
          "type": "address"
        },
        {
          "internalType": "address",
          "name": "buyer",
          "type": "address"
        },
        {
          "internalType": "uint256",
          "name": "amount",
          "type": "uint256"
        }
      ],
      "name": "transferFrom",
      "outputs": [
        {
          "internalType": "bool",
          "name": "",
          "type": "bool"
        }
      ],
      "stateMutability": "nonpayable",
      "type": "function"
    },
    {
      "inputs": [
        {
          "internalType": "uint256",
          "name": "",
          "type": "uint256"
        }
      ],
      "name": "transferHistory",
      "outputs": [
        {
          "internalType": "uint256",
          "name": "amount",
          "type": "uint256"
        },
        {
          "internalType": "bool",
          "name": "status",
          "type": "bool"
        },
        {
          "internalType": "address",
          "name": "_to",
          "type": "address"
        },
        {
          "internalType": "uint256",
          "name": "time",
          "type": "uint256"
        }
      ],
      "stateMutability": "view",
      "type": "function"
    },
    {
      "inputs": [
        {
          "internalType": "address",
          "name": "_to",
          "type": "address"
        },
        {
          "internalType": "uint256",
          "name": "amount",
          "type": "uint256"
        }
      ],
      "name": "transferTokens",
      "outputs": [
        {
          "internalType": "bool",
          "name": "",
          "type": "bool"
        }
      ],
      "stateMutability": "nonpayable",
      "type": "function"
    }
  ],
  "bytecode": "0x60c0604052600360808190526211139160ea1b60a09081526200002691600091906200008c565b5060408051808201909152600780825266111a585b5bdb9960ca1b602090920191825262000057916001916200008c565b50683635c9adc5dea000006002553480156200007257600080fd5b50600254336000908152600560205260409020556200016f565b8280546200009a9062000132565b90600052602060002090601f016020900481019282620000be576000855562000109565b82601f10620000d957805160ff191683800117855562000109565b8280016001018555821562000109579182015b8281111562000109578251825591602001919060010190620000ec565b50620001179291506200011b565b5090565b5b808211156200011757600081556001016200011c565b600181811c908216806200014757607f821691505b602082108114156200016957634e487b7160e01b600052602260045260246000fd5b50919050565b610ca8806200017f6000396000f3fe608060405234801561001057600080fd5b50600436106100cf5760003560e01c806370a082311161008c57806395d89b411161006657806395d89b4114610200578063bec3fa1714610208578063d1ff16b21461021b578063f5d6d6361461023057600080fd5b806370a0823114610165578063816c99de1461018e57806384b90103146101d057600080fd5b806318160ddd146100d457806323b872dd146100eb57806328cebd821461010e578063313ce567146101215780635f36b2db1461013b5780636c02a93114610150575b600080fd5b6002545b6040519081526020015b60405180910390f35b6100fe6100f9366004610a0f565b610269565b60405190151581526020016100e2565b6100fe61011c366004610a4b565b61052a565b610129601281565b60405160ff90911681526020016100e2565b610143610614565b6040516100e29190610a75565b6101586106a4565b6040516100e29190610ae4565b6100d8610173366004610b39565b6001600160a01b031660009081526005602052604090205490565b6101a161019c366004610b5b565b610732565b6040516100e2949392919093845291151560208401526001600160a01b03166040830152606082015260800190565b6101e36101de366004610b5b565b610779565b604080519283526001600160a01b039091166020830152016100e2565b6101586107b0565b6100fe610216366004610a4b565b6107bd565b610223610987565b6040516100e29190610b74565b6100d861023e366004610bbf565b6001600160a01b03918216600090815260066020908152604080832093909416825291909152205490565b6001600160a01b0383166000908152600560205260408120548211156102cb5760405162461bcd60e51b8152602060048201526012602482015271496e73756666696369656e742046756e647360701b60448201526064015b60405180910390fd5b6001600160a01b03841660009081526006602090815260408083203384529091529020548211156103535760405162461bcd60e51b815260206004820152602c60248201527f506c65617365205265717565737420666f72206d6f72652066756e647320667260448201526b37b6903a34329037bbb732b960a11b60648201526084016102c2565b6001600160a01b038416600090815260056020526040902054610377908390610c08565b6001600160a01b03851660009081526005602090815260408083209390935560068152828220338352905220546103af908390610c08565b6001600160a01b0380861660009081526006602090815260408083203384528252808320949094559186168152600590915220546103ee908390610c1f565b6001600160a01b03808516600081815260056020908152604080832095909555845160808101865287815260019181018281528187018581524260608401908152600380549586018155958690529251939094027fc2575a0e9e593c00f959f8c92f12db2869c3395a3b0502d05e2516446f71f85b810193909355517fc2575a0e9e593c00f959f8c92f12db2869c3395a3b0502d05e2516446f71f85c830180549451871661010002610100600160a81b0319921515929092166001600160a81b0319909516949094171790925590517fc2575a0e9e593c00f959f8c92f12db2869c3395a3b0502d05e2516446f71f85d909101559151908616907fddf252ad1be2c89b69c2b068fc378daa952ba7f163c4a11628f55a4df523b3ef906105189086815260200190565b60405180910390a35060019392505050565b3360008181526006602090815260408083206001600160a01b03878116808652918452828520879055825180840184528781528085018381526004805460018101825590885291517f8a35acfbc15ff81a39ae7d344fd709f28e8600b4aa8c65c6b64bfe7fe36bd19b600290930292830155517f8a35acfbc15ff81a39ae7d344fd709f28e8600b4aa8c65c6b64bfe7fe36bd19c90910180546001600160a01b0319169190921617905590518581529293909290917f8c5be1e5ebec7d5bd14f71427d1e84f3dd0314c0f7b2291e5b200ac8c7c3b92591015b60405180910390a350600192915050565b60606003805480602002602001604051908101604052809291908181526020016000905b8282101561069b57600084815260209081902060408051608081018252600386029092018054835260018082015460ff811615158587015261010090046001600160a01b0316928401929092526002015460608301529083529092019101610638565b50505050905090565b600180546106b190610c37565b80601f01602080910402602001604051908101604052809291908181526020018280546106dd90610c37565b801561072a5780601f106106ff5761010080835404028352916020019161072a565b820191906000526020600020905b81548152906001019060200180831161070d57829003601f168201915b505050505081565b6003818154811061074257600080fd5b600091825260209091206003909102018054600182015460029092015490925060ff82169161010090046001600160a01b03169084565b6004818154811061078957600080fd5b6000918252602090912060029091020180546001909101549091506001600160a01b031682565b600080546106b190610c37565b336000908152600560205260408120548211156108115760405162461bcd60e51b8152602060048201526012602482015271496e73756666696369656e742046756e647360701b60448201526064016102c2565b3360009081526005602052604090205461082c908390610c08565b33600090815260056020526040808220929092556001600160a01b03851681522054610859908390610c1f565b6001600160a01b03808516600081815260056020908152604080832095909555845160808101865287815260019181018281528187018581524260608401908152600380549586018155958690529251939094027fc2575a0e9e593c00f959f8c92f12db2869c3395a3b0502d05e2516446f71f85b810193909355517fc2575a0e9e593c00f959f8c92f12db2869c3395a3b0502d05e2516446f71f85c83018054945190961661010002610100600160a81b0319911515919091166001600160a81b03199094169390931792909217909355517fc2575a0e9e593c00f959f8c92f12db2869c3395a3b0502d05e2516446f71f85d90920191909155905133907fddf252ad1be2c89b69c2b068fc378daa952ba7f163c4a11628f55a4df523b3ef906106039086815260200190565b60606004805480602002602001604051908101604052809291908181526020016000905b8282101561069b5760008481526020908190206040805180820190915260028502909101805482526001908101546001600160a01b03168284015290835290920191016109ab565b80356001600160a01b0381168114610a0a57600080fd5b919050565b600080600060608486031215610a2457600080fd5b610a2d846109f3565b9250610a3b602085016109f3565b9150604084013590509250925092565b60008060408385031215610a5e57600080fd5b610a67836109f3565b946020939093013593505050565b602080825282518282018190526000919060409081850190868401855b82811015610ad75781518051855286810151151587860152858101516001600160a01b0316868601526060908101519085015260809093019290850190600101610a92565b5091979650505050505050565b600060208083528351808285015260005b81811015610b1157858101830151858201604001528201610af5565b81811115610b23576000604083870101525b50601f01601f1916929092016040019392505050565b600060208284031215610b4b57600080fd5b610b54826109f3565b9392505050565b600060208284031215610b6d57600080fd5b5035919050565b602080825282518282018190526000919060409081850190868401855b82811015610ad7578151805185528601516001600160a01b0316868501529284019290850190600101610b91565b60008060408385031215610bd257600080fd5b610bdb836109f3565b9150610be9602084016109f3565b90509250929050565b634e487b7160e01b600052601160045260246000fd5b600082821015610c1a57610c1a610bf2565b500390565b60008219821115610c3257610c32610bf2565b500190565b600181811c90821680610c4b57607f821691505b60208210811415610c6c57634e487b7160e01b600052602260045260246000fd5b5091905056fea264697066735822122025805fbe44cfc5f6c46e638c797a866a20dfd3b7a5ad6eb266c027cab20c2fc164736f6c63430008090033",
  "linkReferences": {},
  "deployedLinkReferences": {}
}